:10000000C1C1E5C1E4C1E3C1E2C1E1C1E0C1DFC1F9
:10001000DEC1DDC1DCC161C6DAC1D9C1D8C1D7C179
:10002000D6C10000000000000000002F000000000A
:100030000700070000147F147F1400242A7F2A126F
:10004000006264081323003649552250000005035E
:10005000000000001C224100000041221C0000148E
:10006000083E08140008083E0808000000A06000D0
:100070000008080808080000606000000020100860
:100080000402003E5149453E0000427F40000042CC
:1000900061514946002141454B31001814127F102F
:1000A000002745454539003C4A494930000171095E
:1000B000050300364949493600064949291E000012
:1000C00036360000000056360000000814224100B9
:1000D00000141414141400004122140800020151E9
:1000E000090600324959513E007C1211127C007FF2
:1000F00049494936003E41414122007F4141221C8D
:10010000007F49494941007F09090901003E4149F1
:10011000497A007F0808087F0000417F41000020E5
:1001200040413F01007F08142241007F4040404091
:10013000007F020C027F007F0408107F003E4141D7
:10014000413E007F09090906003E4151215E007FC2
:10015000091929460046494949310001017F010139
:10016000003F4040403F001F2040201F003F4038DC
:10017000403F00631408146300070870080700611B
:100180005149454300007F4141000002040810200E
:10019000000041417F000004020102040040404091
:1001A0004040000001020400002054545478007FB5
:1001B0004844443800384444442000384444487F8C
:1001C00000385454541800087E0901020018A4A4F1
:1001D000A47C007F080404780000447D40000040B7
:1001E00080847D00007F102844000000417F400093
:1001F000007C04180478007C080404780038444427
:10020000443800FC242424180018242418FC007C02
:100210000804040800485454542000043F4440207B
:10022000003C4040207C001C2040201C003C403012
:10023000403C004428102844001CA0A0A07C00449E
:1002400064544C440008364141000000007F000027
:10025000000041413608000804081008C8A1A81F82
:10026000DA028D144572726F72206275726E696E59
:100270006720667573657320215072657373203C27
:100280004F4B3E20746F20706572666F726D6120F7
:100290006368697020657261736520616E642020F7
:1002A0002020207265747279206275726E696E67A3
:1002B0002066757365732E2000436865636B206349
:1002C0006F727265637420706C6163652D206D655B
:1002D0006E74206F662074686520636869702061A1
:1002E0006E64207072657373203C4F4B3E20746FB8
:1002F0002072657472792E200054696E79204856F8
:1003000053502056657273696F6E20302E35496EDA
:100310007365727420415474696E7920696E746FCC
:1003200020202074686520736F636B657420616E94
:1003300064207072657373204F4B2D427574746F17
:100340006E20746F20636F6E74696E7565000000B7
:100350003A00370000003B0038000000390036004A
:100360000101010101010101020202010204081060
:10037000204080040201000000000004030201008C
:100380000000340811241FBECFE5D2E0DEBFCDBF90
:1003900011E0A0E6B0E0EEE2F1E102C005900D92BE
:1003A000AC30B107D9F721E0ACE0B1E001C01D925B
:1003B000A834B207E1F711E0C2ECD1E003C0219705
:1003C000FE01A9D6C13CD107D1F7D1D4AEC618CE13
:1003D000823099F018F4813069F00895833019F073
:1003E000843021F008958FB58F7702C08FB58F7D4F
:1003F0008FBD089580B78F7702C080B78F7D80BF93
:100400000895CF93DF93282F30E0F901EA58FC4F8D
:100410008491F901E559FC4FD491F901E05AFC4F60
:10042000C491CC2389F08111D3DFEC2FF0E0EE0FE3
:10043000FF1FE65AFC4FA591B491EC91ED2381E0AA
:1004400090E021F480E002C080E090E0DF91CF9165
:1004500008951F93CF93DF93282F30E0F901EA58D6
:10046000FC4F8491F901E559FC4FD491F901E05A10
:10047000FC4FC491CC23B9F0162F8111A9DFEC2FCA
:10048000F0E0EE0FFF1FEC5AFC4FA591B4919FB71F
:10049000F894111104C08C91D095D82302C0EC912E
:1004A000DE2BDC939FBFDF91CF911F910895CF93F7
:1004B000DF9390E0FC01E559FC4F2491FC01E05AE8
:1004C000FC4F8491882361F190E0880F991FFC0113
:1004D000E25BFC4FC591D491FC01EC5AFC4FA59115
:1004E000B491611109C09FB7F89488812095822347
:1004F0008883EC912E230BC0623061F49FB7F8948F
:100500008881322F309583238883EC912E2B2C9376
:100510009FBF06C08FB7F894E8812E2B28838FBF2A
:10052000DF91CF9108953FB7F89480913E0190916B
:100530003F01A0914001B091410122B708B600FEF1
:1005400005C02F3F19F00196A11DB11D3FBFBA2F65
:10055000A92F982F8827820F911DA11DB11DBC01C5
:10056000CD0143E0660F771F881F991F4A95D1F789
:100570000895AF92BF92CF92DF92EF92FF920F93C6
:100580001F93CF93DF936C017B018B01040F151F29
:10059000EB015E01AE18BF08C017D10759F0699191
:1005A000D601ED91FC910190F081E02DC6010995F5
:1005B000892B79F7C501DF91CF911F910F91FF90A2
:1005C000EF90DF90CF90BF90AF900895E09126011B
:1005D000F09127010994E0912401F09125010994FB
:1005E000E0912801F091290180912A01099580E488
:1005F000F2CFE0912801F091290180912A0109951B
:1006000080E0E9CFCF93C091610080E2C827C0931A
:100610006100EFDF8C2FDFDFD9DF9091600084E095
:10062000892780936000CF9108951F93CF93DF9324
:10063000C62F142FD42FD77080916000D82BD9DF0C
:100640008D2FC9DF8C2F82958F708061C4DF8C2F36
:100650008F70C1DFBBDFC093430110934201DF9174
:10066000CF911F9108951F93CF93DF93C0E010E8BF
:100670004C2F60E084E491E0D8DF80914301D12FDA
:10068000D81B10934301ACDF80E0A5DF811104C0CB
:100690009DDFA6DF80E09FDFD150B1F797DFCF5F0E
:1006A000C43031F740E060E084E491E0DF91CF9125
:1006B0001F91BBCFFC0190914201960F492F50E052
:1006C00024E030E0261B31092417350714F494E0A8
:1006D000961B909342014091420160E0CF01A5CF6B
:1006E0008F929F92AF92BF92CF92DF92EF92FF9242
:1006F0000F931F93CF93DF93E0912E01F0912F0181
:10070000309709F468C06D3009F465C0162FEC010C
:10071000A3806A3019F46A2DCDDF5DC082802091FC
:10072000430130E0E82CF12C80E890E08E199F091D
:10073000821793071CF46A2DCE01BCDF212F30E015
:10074000E0912E01F0912F0144818A2D90E0B701B4
:10075000AFD4BC01C901841B9109AAD48C019A2C85
:100760003FDFF8018E2F801B8815B8F46F018FEFE3
:10077000C81AD80AA0912E01B0912F018D919C9199
:10078000E80FF91FB4908B2D26DF811104C01EDF06
:1007900027DF8B2D20DFF601E5CF0E0D1F1D16DFA5
:1007A00081E0A81206C080914301880D8093430127
:1007B0000FC04091420181E04F5F891518F46091AC
:1007C000430104C04A1960914301680DCE012DDF39
:1007D0009A949110C5CF81E090E0DF91CF911F9165
:1007E0000F91FF90EF90DF90CF90BF90AF909F90D0
:1007F0008F900895089580E090E00895CF93DF935F
:10080000EC01FE016491662329F084E491E068DF45
:100810002196F7CFDF91CF910895CF92DF92EF929B
:10082000FF920F931F93CF93C82EE62E2FB7F89405
:1008300080913A0190913B01A0913C01B0913D0122
:100840002FBF80931F0190932001A0932101B093AB
:10085000220182E0D6DD892BD9F42FB7F89480915C
:100860003A0190913B01A0913C01B0913D012FBF15
:1008700040911F015091200160912101709122014E
:10088000841B950BA60BB70B0A97A105B10508F3BE
:1008900060E087E0DEDD60E085E0DBDD61E081E0F7
:1008A000D8DD60E081E0D5DD07E010E0C0E0D12CCC
:1008B000F12CB601002E02C0759567950A94E2F7F7
:1008C000617087E0C6DDB701002E02C0759567959F
:1008D0000A94E2F7617085E0BCDD82E092DDCC0F26
:1008E000C82B61E081E0B5DD60E081E0B2DD015060
:1008F0001109F8F660E087E0ACDD60E085E0A9DD95
:1009000061E081E0A6DD60E081E0A3DD61E081E0FF
:10091000A0DD60E081E09DDD8C2FCF911F910F91D4
:10092000FF90EF90DF90CF9008956CE480E475DF46
:100930006CE28091320171DF64E780E06EDF6CE78A
:1009400080E06BDF6CE480E468DF6CE2809133016F
:1009500064DF64E680E061DF6CE680E05ECF6CE43B
:1009600084E05BDF68E680E058DF6CE680E055DF1E
:10097000809331016CE484E050DF6AE780E04DDF72
:100980006EE780E04ADF809330016CE484E045DF6D
:100990006AE680E042DF6EE680E03FDF809323017D
:1009A000089560E081E055DD60E083E052DD61E0C4
:1009B00080E04FCD8F929F92AF92BF92CF92DF9205
:1009C000EF92FF9288E01DDD892BE1F3ACDD4B0156
:1009D0005C018AE0C82ED12CE12CF12CA4DDDC01D5
:1009E000CB0188199909AA09BB09883E9340A10542
:1009F000B105A0F321E0C21AD108E108F10888EEA0
:100A0000880E83E0981EA11CB11CC114D104E1041E
:100A1000F10421F788E0F5DC892BE1F7FF90EF90F6
:100A2000DF90CF90BF90AF909F908F900895E0910E
:100A30001E01E13148F4EF5FE0931E01F0E0E45F56
:100A4000FE4F808381E0089580E0089510921E019A
:100A5000880F80930C010895DE9ADC9AD49AD69A76
:100A60008FEF8FB98AE28DB980EF8EB90895009724
:100A700061F0FC0101900020E9F73197AF01481BBC
:100A8000590BBC0184E491E074CD80E090E00895BE
:100A90008F929F92AF92BF920F931F93CF93DF934A
:100AA000CDB7DEB7A1970FB6F894DEBF0FBECDBFAE
:100AB00019A2423008F44AE08E010F5D1F4F842EC8
:100AC000912CA12CB12CA501940103D3E62FB901DF
:100AD000CA0101501109EA3014F4E05D01C0E95C7B
:100AE000D801EC93232B242B252B69F7C801BFDFFA
:100AF000A1960FB6F894DEBF0FBECDBFDF91CF91A8
:100B00001F910F91BF90AF909F908F900895AFCF9E
:100B100008D3DC9ADC9BFECF8DE08A95F1F70000CC
:100B2000DE988AE08A95F1F700C0DC98DE9A779922
:100B300005C083E080932B0180E0089581E0089553
:100B40008EB98BE29DE09A95F1F700008DB9CC9BB0
:100B5000FECF9AE09A95F1F700C08DB9769BF2CF5F
:100B60008DE08A95F1F700008FB19FEF9FB9D69A7B
:100B70000895CF92DF92EF92FF920F931F93CF933E
:100B8000DF9300911E0181E080932B0180910C0185
:100B900080FD03C083E080932B01BBDF882309F431
:100BA00052C00F5F102FCCE0D1E0DD24DA94CC24CA
:100BB000C39480912B0183709E012F5F3F4F790179
:100BC000882369F1DC9888818FB980EFB9DFD698E6
:100BD0008EEFB6DF90912B0180FF0BC0892F8170C3
:100BE00090FF05C081E080932B0180E02CC092E053
:100BF0000FC0892F8570843071F480910C01816061
:100C000080930C01C0922B0184DF811115C09AE002
:100C100090932B0118C09E7F90932B010BC0D69808
:100C200080EF8EDF8883113011F4DFB801C01FB868
:100C30008EEF86DFE70103C0102FCCE0D1E011502A
:100C400009F0B7CF81E010921E01882391F0DE9861
:100C5000DC9ACC9BFECF3AE03A95F1F700C0DE9AE1
:100C60008DE08A95F1F70000759903C084E08093C8
:100C70002B01DF91CF911F910F91FF90EF90DF90AB
:100C8000CF90089541E060E084E491E0CEDC84E719
:100C900090E03DDF42E060E084E491E0C6DC8AE879
:100CA00090E035DF6091310170E080E090E040E15C
:100CB000EFDE8EE890E02BDF6091300170E080E0A5
:100CC00090E040E1E5DE85E990E021DF60912301DD
:100CD00070E080E090E040E1DBCE1F920F920FB613
:100CE0000F9211242F933F938F939F93AF93BF93B2
:100CF00080913A0190913B01A0913C01B0913D015E
:100D00003091390126E0230F2D3720F40296A11DE2
:100D1000B11D05C029E8230F0396A11DB11D209325
:100D2000390180933A0190933B01A0933C01B09329
:100D30003D0180913E0190913F01A0914001B09111
:100D400041010196A11DB11D80933E0190933F0189
:100D5000A0934001B0934101BF91AF919F918F91BA
:100D60003F912F910F900FBE0F901F901895789480
:100D700080B7826080BF80B7816080BF83B78260A8
:100D800083BF83B7816083BF89B7816089BF1EBC81
:100D90008EB582608EBD8EB581608EBD8FB581604F
:100DA0008FBD329A319A3098379A61E083E07FDBC9
:100DB00061E087E07CDB61E085E079DB61E081E098
:100DC00076DB61E082E073DB61E080E070DB61E0B4
:100DD00080E03FDB62E088E06ADBE0912C01F0918B
:100DE0002D01099506DCCCE5D2E074E6E72E72E031
:100DF000F72EFE011491812FEEDB811104C0E6DB9A
:100E0000F8DB812FE8DB2196EC16FD0691F7DEDB9F
:100E10008EE690E090932F0180932E0124DCE9DB95
:100E20008FEAD9DBD3DB9091600084E0892780933F
:100E30006000C4E2D0E000E110E044E5E42E42E0CE
:100E4000F42E50E0C52E50E0D52E9924939462E6FE
:100E5000B62E3FEDA32E07DC40E060E084E491E095
:100E6000E4DB89EF92E0CADCCDDB109238012AE6A0
:100E7000822E77247A94809138018111A6C09ADD60
:100E80009092380161E082E012DB60E087E0E1DA15
:100E900060E085E0DEDA60E082E0DBDA61E080E0FD
:100EA000D8DA61E083E0D5DACE010197F1F760E0AE
:100EB00080E0CFDAC8010197F1F760E082E0F7DA6D
:100EC000C7010197F1F76CE488E0A7DC6CE080E0F3
:100ED000A4DC68E680E0A1DC6CE680E09EDC682EA5
:100EE0006CE081E09ADC68E680E097DC6CE680E00C
:100EF00094DC582E6CE082E090DC68E680E08DDCCB
:100F00006CE680E08ADC452D50E060E070E0562918
:100F1000762F652F542F4427482B4093340150934C
:100F2000350160933601709337019DDB40E060E04E
:100F300084E491E07ADB8CE990E0E9DD8091340192
:100F400090913501A0913601B09137018830F1E9D7
:100F50009F07FEE1AF07B105E9F068F487309049DB
:100F6000AE41B10511F58AEA90E0D1DD80923301FE
:100F70007092320180CF8630F2E99F07FEE1AF0721
:100F8000B10559F08B309349AE41B10571F485EC50
:100F900090E005C083EB90E002C08CEB90E0B7DD01
:100FA000B0923301A092320166CF8EEC90E0AFDDBB
:100FB00041E060E084E491E038DB89EB92E01EDC04
:100FC00021DBEFDC1092380156CFC9DC5BDE43E059
:100FD00060E084E491E029DB86ED90E098DD12DBAF
:100FE000E9DCA3DCBCDC90913101809133019813E2
:100FF00006C090913001809132019817D1F033DB17
:1010000040E060E084E491E010DB84E692E0F6DB0F
:10101000F9DAD0DC6CE480E800DC64E680E0FDDB3B
:101020006CE680E0FADB82E0ECD9892BE1F37DDC31
:1010300096DCB7DC18DB40E060E084E491E0F5DAB0
:101040008CEE90E064DD1EDE43E060E084E491E03D
:10105000ECDA89EF90E05BDDD5DAACDCC114D104C9
:1010600009F4F9CECDD7F5CEE4E4F1E01382128293
:1010700086E690E0918380838CE380932A018CE262
:1010800095E090932D0180932C0186E295E090935A
:1010900029018093280187E195E0909325018093B1
:1010A000240189EB95E09093270180932601089510
:1010B0000024552704C0080E591F880F991F009758
:1010C00029F076956795B8F37105B9F7802D952FBE
:1010D0000895A1E21A2EAA1BBB1BFD010DC0AA1F79
:1010E000BB1FEE1FFF1FA217B307E407F50720F091
:1010F000A21BB30BE40BF50B661F771F881F991F0C
:101100001A9469F760957095809590959B01AC0154
:10111000BD01CF010895EE0FFF1F0590F491E02D62
:0E112000099481E090E0F89400C0F894FFCFAD
:10112E00B040000000007003B902FB03FA03220076
:10113E000601207E43757272656E74206675736546
:10114E002073657474696E6773006C3A2000202DED
:10115E0020683A2000202D20653A200044657465F1
:10116E00637465643A2020202000415474696E79BE
:10117E00313300415474696E7932350041547469CB
:10118E006E79343500415474696E79383500457284
:10119E00726F722021003C4F4B3E20746F2062759F
:1011AE00726E2064656661756C7473004675736546
:1011BE0073206275726E6564005072657373203CA5
:0C11CE004F4B3E20746F20717569740057
:00000001FF
