:10000000BEC1CDC1CCC1CBC1CAC1C9C1C8C1C7C1A4
:10001000C6C1C5C1C4C1C3C1C2C1C1C1C0C1BFC1C4
:10002000BEC1000000000000002F00000007000714
:1000300000147F147F14242A7F2A12231308646279
:1000400036495522500005030000001C22410000E3
:1000500041221C0014083E081408083E080800004D
:10006000A060000808080808006060000020100870
:1000700004023E5149453E00427F400042615149E1
:10008000462141454B311814127F1027454545390B
:100090003C4A494930017109050336494949360648
:1000A0004949291E00363600000056360000081463
:1000B00022410014141414140041221408020151A6
:1000C0000906324959513E7C1211127C7F49494937
:1000D000363E414141227F4141221C7F49494941ED
:1000E0007F090909013E4149497A7F0808087F00D4
:1000F000417F41002040413F017F081422417F4061
:100100004040407F020C027F7F0408107F3E414147
:10011000413E7F090909063E4151215E7F091929A7
:1001200046464949493101017F01013F4040403F76
:100130001F2040201F3F4038403F631408146307CE
:10014000087008076151494543007F41410002049E
:100150000810200041417F00040201020440404099
:100160004040000102040020545454787F48444425
:10017000383844444420384444487F385454541850
:10018000087E09010218A4A4A47C7F080404780056
:10019000447D40004080847D007F10284400004161
:1001A0007F40007C041804787C08040478384444B8
:1001B0004438FC2424241818242418FC7C08040443
:1001C000084854545420043F4440203C4040207C84
:1001D0001C2040201C3C4030403C44281028441C3B
:1001E000A0A0A07C4464544C440836414100000067
:1001F0007F000000414136080804081008FFFFFF97
:10020000FFFF202D20653A2000202D20683A200095
:100210006C3A200043757272656E74206675736562
:100220002073657474696E677300C8A1A81FDA0231
:100230008D14AF5072657373203C4F4B3E20746F2A
:1002400020717569742E20200046757365732062D5
:1002500075726E656420202020202020202000451B
:1002600072726F72206275726E696E672066757346
:10027000657320215072657373203C4F4B3E207490
:100280006F20706572666F726D612063686970209F
:10029000657261736520616E642020202020726584
:1002A000747279206275726E696E67206675736507
:1002B000732E20003C4F4B3E20746F206275726E8F
:1002C0002064656661756C747300436865636B20B8
:1002D000636F727265637420706C6163652D206D4D
:1002E000656E74206F66207468652063686970208D
:1002F000616E64207072657373203C4F4B3E2074B6
:100300006F2072657472792E2000204572726F72B0
:10031000202100415474696E7900446574656374EA
:1003200065643A202020200054696E792048565395
:10033000502056657273696F6E20312E30496E738E
:100340006572742020415474696E792020696E743E
:100350006F2074686520736F636B657420616E64D1
:10036000207072657373204F4B2D427574746F6EDD
:1003700020746F20636F6E74696E756500001124C0
:100380001FBECFE5D2E0DEBFCDBF20E0A0E6B0E0EB
:1003900001C01D92AB36B207E1F72FD119C230CEA2
:1003A000D998D89ADB988BB381758BBB8AB381754A
:1003B0008ABB0895D69AD498D698089598E087FF76
:1003C00002C0D69801C0D69AD498C895D49A880FFE
:1003D0009150A9F7C895D698D498C895D49A0895FD
:1003E000D69AD49A88E7EACFCF93C82FF9DF80E076
:1003F000E5DF80E0E3DF80E1E1DF8C2F8770806B59
:10040000DDDFD8DF10926A00C0936900CF910895B4
:100410000F931F93CF93DF93082E000C990B8097B7
:100420008C01000F111F000F111F080F191F80E012
:10043000C5DFC0E0D0E0F801EC0FFD1FEE5DFF4F1F
:100440008491BCDF2196C530D105A9F780916A005F
:100450008A5F80936A008B3770F0ACDF809169000F
:100460008F5F80936900C0DFBBDF80E4DF91CF91B5
:100470001F910F91A3CFDF91CF911F910F910895FD
:10048000CF93C82FADDF80E499DF8C2F90E024E07C
:10049000959587952A95E1F78A3010F4805D01C023
:1004A000895CB6DF8C2F8F708A3010F4805D01C0BC
:1004B000895CAEDFCF917ECFCF93DF93EC0190DFED
:1004C00080E47CDFFE018491882319F0A1DF21966E
:1004D000F9CFDF91CF916ECF81E086DF84E192E0AA
:1004E000EBDF80E192E0E8DF80916200C9DF89E024
:1004F00092E0E2DF80916100C3DF82E092E0DCDF26
:1005000080916000BDCFB29BFECF8FE19EE401974A
:10051000F1F700C00000B299FECF0895282F8AE0BD
:10052000CA9B07C0DF98DD98D99AD99898E080E0F7
:1005300009C0EFECF7E03197F1F700C000008150FF
:1005400079F7F0CF27FF02C0DF9A01C0DF9867FF7D
:1005500002C0DD9A01C0DD98220F660F880FCA998C
:100560008160D99AD998915069F7DF98DD98D99A26
:10057000D998D99AD99808956CE480E4CFDF6CE2D9
:1005800080916400CBDF64E680E0C8DF6CE680E049
:10059000C5DF6CE280916300C1DF64E780E0BEDF0D
:1005A0006CE780E0BBDF809168006CE28170B6DFB1
:1005B00066E680E0B3DF6EE680E0B0DFCA9BFECF88
:1005C00008956CE484E0AADF68E680E0A7DF6CE6CB
:1005D00080E0A4DF809362006AE780E09FDF6EE73F
:1005E00080E09CDF809361006AE680E097DF6EE642
:1005F00080E094DF809360000895D09AD89AC29AE0
:100600008FEF809368008AB38F7A8ABB8BB38F7A1F
:100610008BBBE6DE80E0D2DECAE2D2E0FE0184914E
:10062000CDDE2196F2E0C333DF07C1F7C3DEC0E0C1
:100630008C2FDADED5DE80E4C1DED0E880E0BEDEDD
:10064000D150E1F7B7DECF5FC43091F7FF24F394C8
:1006500012E60FED8AE6E82EDD24DA9480E0C4DEAF
:1006600088E293E029DF1092670080916700811192
:1006700079C049DFF09267008BB381758BBBD89A44
:100680008AB38F6A8ABBDB9A85E38A95F1F700000B
:10069000D8989AE19A95F1F700C0D298E7E5F2E090
:1006A0003197F1F700C000006CE488E037DF6CE0C0
:1006B00081E034DF68E680E031DF6CE680E02EDF49
:1006C00010926500809366006CE082E027DF68E6A8
:1006D00080E024DF6CE680E021DFC0916500D091EE
:1006E0006600C82BD0936600C093650080E07CDE76
:1006F0008AE193E0E1DEC830F1E9DF07D1F068F488
:10070000C730D04929F583E193E0D6DE83E1B8DE36
:10071000E0926400D0926300A8CFC630E2E9DE0721
:1007200069F0CB30D349A1F483E193E0C5DE85E8DD
:1007300009C083E193E0C0DE85E204C083E193E079
:10074000BBDE85E49DDE10936400009363008DCFD3
:100750008AE093E0B1DE81E047DE8AEC92E0ACDE35
:100760001FDE81CF2EDFB8DE84EB92E0A5DECBDE8C
:1007700003DF27DF9091620080916400981306C028
:1007800090916100809163009817B1F080E02CDEB9
:100790008FE592E091DEB7DE6CE480E8BFDE64E6D0
:1007A00080E0BCDE6CE680E0B9DECA9BFECF6CE484
:1007B00080E0B4DEE1DE05DFF3DD80E015DE89E414
:1007C00092E07ADE89DE83E392E076DE9CDE46CF3D
:0407D000F894FFCFCB
:00000001FF
